:020000040800F2
:1000000000180020C5160008390500083B05000847
:1000100000000000000000000000000000000000E0
:100020000000000000000000000000003D05000886
:1000300000000000000000003F0500084105000826
:100040004517000845170008451700084517000820
:100050004517000845170008451700084517000810
:100060004517000845170008451700084517000800
:1000700045170008451700084517000845170008F0
:100080004517000800000000000000004D050008B2
:100090000000000045170008451700084517000834
:1000A000000000005D05000845170008451700081E
:1000B0004517000800000000451700084517000814
:1000C00010B5064C2378002B07D1054B002B02D02E
:1000D000044800E000BF0123237010BD040000208D
:1000E0000000000090170008044B10B5002B03D04F
:1000F0000349044800E000BF10BDC04600000000F6
:100100000800002090170008002243088B4274D397
:1001100003098B425FD3030A8B4244D3030B8B4208
:1001200028D3030C8B420DD3FF22090212BA030C11
:100130008B4202D31212090265D0030B8B4219D3F2
:1001400000E0090AC30B8B4201D3CB03C01A524112
:10015000830B8B4201D38B03C01A5241430B8B425A
:1001600001D34B03C01A5241030B8B4201D30B0343
:10017000C01A5241C30A8B4201D3CB02C01A52416A
:10018000830A8B4201D38B02C01A5241430A8B422D
:1001900001D34B02C01A5241030A8B4201D30B0216
:1001A000C01A5241CDD2C3098B4201D3CB01C01A30
:1001B000524183098B4201D38B01C01A524143093A
:1001C0008B4201D34B01C01A524103098B4201D328
:1001D0000B01C01A5241C3088B4201D3CB00C01A95
:1001E000524183088B4201D38B00C01A524143080D
:1001F0008B4201D34B00C01A5241411A00D2014632
:10020000524110467047FFE701B5002000F006F8A4
:1002100002BDC0460029F7D076E770477047C04658
:10022000FEE7000000B599B009230B93083B0C933F
:1002300012930133149380235B02159380235B0395
:100240001693002317930BA800F058FC00282AD11E
:1002500007230793053B0893002309930A93012181
:1002600007A800F013FF002821D180235B0201932F
:1002700080239B00029301A800F0D0FF00281AD130
:1002800000F0C6FFFA218900FFF73EFF01F0B8F940
:10029000042001F0D1F9012000220021404201F0A8
:1002A00075F919B000BD8E210548FFF7B9FF9B21F4
:1002B0000348FFF7B5FFA2210148FFF7B1FFC04691
:1002C000C817000810B501F05BF8FFF7ABFF00F0AE
:1002D00007F800F099F800F069F800F0EFF8FEE791
:1002E000F0B589B02D4B59698020C0030143596195
:1002F0005A6902400092009A5969802080020143A5
:1003000059615A6902400192019A5A698021C902D1
:100310000A435A615B690B400293029B9025ED05ED
:1003200000221F49280001F005F98021012209015E
:10033000280001F0FFF81B4B0393012304930024D2
:100340000594069403A9280001F038F803230393C9
:10035000049402270597144E03A9300001F02EF8EB
:10036000B8235B0103930494059703A9280001F0C7
:1003700025F880231B0203930494059403A9280005
:1003800001F01CF8FC235B0003930494059403A97B
:10039000300001F013F809B0F0BDC0460010024073
:1003A0001F6000001F6800000004004810B50B48E3
:1003B0000B4B0360002343607F2282608032C26067
:1003C00003614361836100F031F9002800D110BD61
:1003D00040210448FFF724FFF9E7C0462000002031
:1003E00000280040D41700080268054B9A4200D04C
:1003F0007047044A116A80231B020B431362F7E71C
:10040000002800400010024010B51248124B036053
:1004100082235B00436000238360C0229200C2609D
:1004200003614361013AFF3A8261D13AFF3AC26106
:10043000036243628362293AC262036308334363FF
:1004400000F056F9002800D110BD47210348FFF7FE
:10045000E7FEF9E74000002000300140E017000807
:1004600000B587B00268134B9A4201D007B000BDB7
:10047000114A9169802040010143916193690340D1
:100480000093009BE0230193DE3B02930023039340
:10049000032204920593902001A9C00500F08EFF6D
:1004A00000220021192001F071F8192001F09EF8B6
:1004B000DCE7C046003001400010024010B50B4898
:1004C0000B4B03603023436000238360FA229200C9
:1004D000C26003618033836100F0F4FA002800D128
:1004E00010BD3D210348FFF79BFEF9E7A400002063
:1004F00000200040EC17000800B583B002680C4BE8
:100500009A4201D003B000BD0A4AD1698020400060
:100510000143D161D36903400193019B0022002173
:10052000ED3801F033F8132001F060F8EAE7C04637
:1005300000200040001002407047FEE770477047FF
:1005400010B500F02DFF01F088F810BD10B502487D
:1005500000F0C0F910BDC046A400002010B502484C
:1005600000F02EF910BDC0464000002000B583B059
:10057000124B996901221143996199690A400092CD
:10058000009ADA69802149050A43DA61DB690B4088
:100590000193019B052000220021404200F0F6FF5C
:1005A000022000220021404200F0F0FF0120002242
:1005B0000021404200F0EAFF03B000BD00100240FD
:1005C00070B504000268D368A0218B43D36000F0AB
:1005D000EFFE05002368DB689B0608D400F0E8FE08
:1005E000401BFA239B009842F4D9032000E000202E
:1005F00070BD70B504000368DA68520601D50020AA
:1006000070BD01225242DA6000F0D2FE050023687C
:10061000DB685B0608D400F0CBFE401BFA239B008E
:100620009842F4D90320EBE70020E9E710B5041E57
:1006300057D0437F002B3DD0022363772368CA2223
:100640005A622368773A5A622000FFF7D2FF0028E7
:1006500034D12268936824490B40936021688A68EA
:100660006368206903436069034313438B60236815
:10067000E2681A6121680B69A268120413430B61D6
:100680002268D36880218B43D36023689B689B06D4
:100690001BD52268136C15490B4013642268136C38
:1006A000A1690B4313642368FF225A620123637715
:1006B000002009E00377FFF797FEBDE72368FF22DC
:1006C0005A6204236377012010BD2000FFF778FFF2
:1006D0000028DED02368FF225A62042363770120BA
:1006E000F2E70120F0E7C046BFFF8FFFFFFFFBFFEF
:1006F00010B5041E5ED0002383625D33C35C002B03
:100700004CD05D230222E2542268136840218B43BF
:100710001360E368E022D200934245D90022F02121
:1007200009018B4205D0E021C9008B4201D0002194
:10073000A162216B002905D1E021C9008B4236D985
:10074000022323636368A1680B4321690B4361693A
:100750000B4380218900A06901400B43E1690B43F1
:10076000216A0B432168A06A03430B60618B042359
:100770000B40616A0B43616B0B43E1680B432168DB
:1007800013434B602268D3690B490B40D3610023AC
:1007900023665D330122E254002010BD5C33002249
:1007A000C254FFF75DFEACE780225201B7E7012398
:1007B0002363C7E70120F0E7FFF7FFFF7047000062
:1007C00030B585B00400016848688A684123134049
:1007D000012B08D093070CD503060AD5236D200002
:1007E000984705B030BD4306F4D5E36C2000984728
:1007F000F7E7B0235B001A42F3D08306F1D5530626
:100800000ED55D23E35C032B48D0236E04252B43D8
:10081000236600230093CB6800938B680093009BB2
:1008200093060CD5236E01252B43236600230293E8
:100830008B6802930B683F35AB430B60029BD3057B
:1008400009D5236E082213432366002303932368EC
:100850009B680393039B236E002BC2D022685368CE
:10086000E0218B4353605D230122E25483071DD0B6
:1008700022685368DD398B435360A36D002B04D08D
:100880000C4A5A63A06D00F05BFE636D002BA8D08C
:10089000084A5A63606D00F053FEA2E700230193FB
:1008A000CB6801938B680193019B9AE72000FFF7C7
:1008B00085FF96E7B908000810B5406A0023462274
:1008C0008352C387FFF77AFF10BD704770477047A8
:1008D0007047704710B5040003681A6992070FD576
:1008E000DA6892070CD5032252421A61012303777A
:1008F00003689B699B0763D0FFF7E9FF0023237719
:1009000023681A69520712D5DA6852070FD50522F3
:1009100052421A610223237723689A69C0239B00FD
:100920001A4253D02000FFF7D2FF00232377236819
:100930001A69120710D5DA6812070DD5092252423A
:100940001A61042323772368DB699B0745D02000C5
:10095000FFF7BDFF0023237723681A69D20612D55B
:10096000DA68D2060FD5112252421A610823237782
:100970002368DA69C0239B001A4235D02000FFF7B4
:10098000A6FF0023237723681A69D20702D5DA6805
:10099000D20730D423681A69120602D5DA68120623
:1009A00030D423681A69520602D5DA68520630D468
:1009B00023681A69920602D5DA68920630D410BD0F
:1009C000FFF784FF2000FFF783FF97E72000FFF782
:1009D0007DFF2000FFF77CFFA7E72000FFF776FFF1
:1009E0002000FFF775FFB5E72000FFF76FFF20003D
:1009F000FFF76EFFC5E7022252421A612000FFF79F
:100A000064FFC7E7812252421A61200000F075F8A6
:100A1000C7E7412252421A612000FFF75AFFC7E799
:100A2000212252421A61200000F066F8C7E7000058
:100A300003681E4A904206D08022D205904202D01E
:100A40001B4A904203D1702293434A681343174ACA
:100A500090420FD08022D20590420BD0144A90428F
:100A600008D0144A904205D0134A904202D0134A4B
:100A7000904203D1124A1340CA6813438022934321
:100A80004A69134303608B68C3620B688362074B38
:100A9000984205D0084B984202D0084B984201D1A9
:100AA0000B690363012343617047C046002C01407A
:100AB0000004004000200040004401400048014084
:100AC000FFFCFFFF70B5041E14D03D23C35C002B58
:100AD0000AD03D2502236355211D2068FFF7A8FF9A
:100AE00001236355002070BD3C330022C254FFF740
:100AF00003FDEEE70120F6E77047704770B582B05E
:100B000004000368DB072BD5B34B5A680C23134052
:100B1000042B1DD0B04B5A680C231340082B0ED069
:100B20006368012B41D0002B56D1AB4B1A68AB49FF
:100B30000A401A601A68AA490A401A603BE0A64BAC
:100B40005B68C02252021340802252029342E7D1D6
:100B5000A14B1B689B0303D56368002B00D135E2D2
:100B600023689B0778D59C4B5B680C221A4262D0A5
:100B7000994B5A680C231340082B53D0E368002B81
:100B800000D082E0944A136801218B43136000F087
:100B90000FFC0500904B1B689B075DD500F008FC1F
:100BA000401B0228F6D9032013E28B4A11688023E8
:100BB0005B020B4313606368002B25D000F0F8FB49
:100BC0000500854B1B689B03CAD400F0F1FB401B5A
:100BD0006428F6D90320FCE1052B09D07E4B1A6866
:100BE0007E490A401A601A687D490A401A60E2E7A5
:100BF000794B19688022D2020A431A601968802250
:100C000052020A431A60D6E700F0D2FB0500724B8D
:100C10001B689B03A4D500F0CBFB401B6428F6D9CE
:100C20000320D6E16C4B5B68C02252021340802245
:100C300012029342A2D1684B1B689B0704D5E3685C
:100C4000012B01D00120C4E163490B68F8229343D2
:100C50002269D20013430B6023681B0744D5E36964
:100C6000002B2ED05C4A536A01210B43536200F0E3
:100C70009FFB0500584B5B6A9B0735D400F098FB3F
:100C8000401B0228F6D90320A3E1534A136801212F
:100C90000B43136000F08CFB05004F4B1B689B0758
:100CA00006D400F085FB401B0228F6D9032090E112
:100CB00049490B68F82293432269D20013430B6021
:100CC000CAE7454A536A01218B43536200F070FB27
:100CD0000500414B5B6A9B0706D500F069FB401B92
:100CE0000228F6D9032074E123685B0700D47FE073
:100CF000394BDB69DB001DD4374AD16980204005C0
:100D00000143D161D36903400193019B0125354B18
:100D10001B68DB0510D5A368012B21D0002B36D131
:100D20002D4B1A6A01218A431A621A6A03318A43D7
:100D30001A621AE00025EAE72A4A116880235B005C
:100D40000B43136000F034FB0600264B1B68DB05E9
:100D5000E1D400F02DFB801B6428F6D9032038E194
:100D60001D4A136A01210B431362A368002B24D090
:100D700000F01EFB0600184B1B6A9B0736D400F0E0
:100D800017FB801B184B9842F5D9032021E1052B56
:100D900009D0114B1A6A01218A431A621A6A033177
:100DA0008A431A62E1E70C4B1A6A04210A431A6269
:100DB0001A6A03390A431A62D7E700F0F9FA060003
:100DC000054B1B6A9B0711D500F0F2FA801B064BFE
:100DD0009842F5D90320FCE000100240FFFFFEFF1F
:100DE000FFFFFBFF0070004088130000012D39D089
:100DF0002368DB0610D56369012B39D0053357D141
:100E0000784A536B04218B435363536BF4318B4308
:100E1000A169C9000B43536323689B0600D482E099
:100E2000704B5A680C2313400C2B5FD06D4B5A68E3
:100E30000C231340082B52D0236A002B5FD1694A40
:100E4000536B69490B40536300F0B2FA0500654BE0
:100E50005B6BDB0367D500F0ABFA401B0228F6D9C9
:100E60000320B6E05F4AD36960490B40D361BFE716
:100E70005C4B5A6B04210A435A635A6B03390A4389
:100E80005A6300F095FA0500564B5B6B9B0706D43E
:100E900000F08EFA401B0228F6D9032099E0514950
:100EA0004B6BF8229343A269D20013434B63B3E721
:100EB0004C4B5A6B04210A435A635A6B03398A43D9
:100EC0005A6300F075FA0500464B5B6B9B07A3D590
:100ED00000F06EFA401B0228F6D9032079E0414B5E
:100EE0005B68C022520213409342A5D13D4B5B6B1D
:100EF000DB0318D5236A012B15D0012069E0394A9C
:100F0000516B80235B020B43536300F051FA0500E1
:100F1000344B5B6BDB0306D400F04AFA401B02281B
:100F2000F6D9032055E0636A002B51D02D4A516851
:100F30000C220A40082A4ED0022B12D0294A1368EC
:100F40002B490B40136000F033FA0400254B1B685B
:100F50009B0144D500F02CFA001B0228F6D903208F
:100F600037E0204A136822490B40136000F020FA52
:100F700005001C4B1B689B0106D500F019FA401BAD
:100F80000228F6D9032024E0164BDA6A0F218A439F
:100F9000216B0A43DA625A6816490A40E16AA06A7C
:100FA00001430A435A601968802252040A431A60B6
:100FB00000F0FEF904000B4B1B689B010DD400F000
:100FC000F7F9001B0228F6D9032002E0012000E017
:100FD000002002B070BD0120FBE70020F9E70020EF
:100FE000F7E7C04600100240FFFFFEFFFFFFFFEFE4
:100FF000FFFFFFFEFF7FC2FF30B589B004AA1F4B81
:10100000180032C832C2110002680A606A46103302
:1010100013CB13C21B681360194B5A680C2313407F
:10102000082B04D00C2B26D0164809B030BD910CEB
:101030000F23194004A8445C1149C96A0B40694652
:10104000C95CC0235B021A4080235B029A4208D02D
:10105000C0235B029A4209D00A48FFF755F8604363
:10106000E3E70848FFF750F86043DEE70648FFF77C
:101070004BF86043D9E70448D7E7C046A8170008F3
:101080000010024000127A00006CDC0270B505000E
:101090000C00594B1A68012313408B420BD256495E
:1010A0000B680122934323430B600B681A40A24252
:1010B00001D0012070BD2B689B0706D54F4A5368AD
:1010C000F0218B43A9680B4353602B68DB0763D582
:1010D0006B68012B09D0022B28D0032B2CD0474A58
:1010E0001268920705D40120E4E7444A126892038B
:1010F0007FD542494A680320824313434B6000F086
:1011000057F906006B68012B1CD0022B28D0032B4B
:1011100034D03A4B5B680C221A423DD000F048F9BB
:10112000801B374B9842F4D90320C3E7334A126837
:101130009201DED40120BDE7304A526BD203D8D4ED
:101140000120B7E72D4B5A680C231340042B23D002
:1011500000F02EF9801B2A4B9842F3D90320A9E70F
:10116000264B5A680C231340082B15D000F020F9A9
:10117000801B234B9842F3D903209BE71F4B5A68EF
:101180000C2313400C2B07D000F012F9801B1C4BD2
:101190009842F3D903208DE7174B1A6801231340B7
:1011A000A3420BD914490B680122934323430B60DC
:1011B0000B681A40A24201D001207BE72B685B0735
:1011C00006D50E4A53680F490B40E9680B4353603C
:1011D000FFF712FF094B5A6812090F2313400A4AFE
:1011E000D35CD840094B1860002000F0B7F800200D
:1011F00060E701205EE7C046002002400010024088
:1012000088130000FFF8FFFFF81700080000002017
:10121000014B18687047C0460000002070B582B0CE
:1012200004000368DB0335D5464BDB69DB005CD487
:10123000444AD169802040050143D161D36903400C
:101240000193019B0125404B1B68DB054FD53D4BAE
:101250001B6AC0229200134013D061680A40934277
:101260000FD0384B186A394A02401E6A8021490261
:1012700031431962196A364E314019621A62C30746
:1012800049D4304A136A31490B4061680B431362F9
:10129000012D4FD02368DB0706D52A4A136B0321A3
:1012A0008B43A1680B43136323689B0606D5254A2D
:1012B000136B10218B43E1680B43136323689B037B
:1012C00006D5204A136B80218B4361690B4313635E
:1012D00023685B0533D51B4A136B40218B4321697F
:1012E0000B431363002002B070BD0025ABE7164A24
:1012F000116880235B000B43136000F059F806006F
:10130000114B1B68DB05A2D400F052F8801B642847
:10131000F6D90320E7E700F04BF80600094B1B6AFB
:101320009B07AED400F044F8801B0A4B9842F5D9D5
:101330000320D8E7D36908490B40D361AAE700200E
:10134000D1E7C0460010024000700040FFFCFFFFE4
:10135000FFFFFEFF88130000FFFFFFEF10B5040042
:10136000FFF756FFFA218900FEF7CEFE00F048F99C
:10137000012000222100404200F008F9002010BDA9
:1013800010B5064A136810210B4313600020FFF7C5
:10139000E5FFFFF7EBF8002010BDC046002002403B
:1013A000024A1368013313607047C046E40000200E
:1013B000014B18687047C046E4000020F0B5C646EF
:1013C00000B582B000236BE0846862461440CE68AA
:1013D000BE4034438460446822004446A2434C68C3
:1013E0002609012434409C4022434260C26864467E
:1013F00022408C68BC402243C2604A68D2004ED56D
:10140000474CA66901221643A661A46922400192B5
:10141000019A9A08941CA400424EA65903241C4029
:10142000A4000F27A740BE439027FF05B8426FD006
:101430003D4FB8426ED03D4FB84267D00527A74018
:101440003C00344302329200364E9451384A1468BC
:10145000EA43160026404F68FF0301D52C432600BF
:10146000334C26606468260016404F68BF0301D5E0
:101470002C4326002E4C6660A468260016404F6858
:10148000FF0201D52C432600294CA660E4682240C7
:101490004E68B60201D52A002243254CE260013392
:1014A0000D682A00DA4037D001229A409046154054
:1014B000F5D04C68022C01D0122C0ED1DC08083477
:1014C000A400275807261E40B6000F22B2409743BB
:1014D0000A69B24016003E43265006685F000324A6
:1014E0002200BA40D243944616404A681440BC4099
:1014F000344304604C68661E012E00D864E7112C4A
:1015000000D161E7122C00D070E75DE7022796E773
:10151000002794E7012792E702B004BC9046F0BD93
:10152000001002400000014000040048000800488C
:1015300000040140002A01D1816270478161FCE70B
:1015400010B52123C35C022B03D004238363012045
:1015500010BD026813680E218B43136001680A688E
:1015600001239A430A60C26B1900046CA1405160C8
:10157000212283541F330022C254436B002B02D01C
:1015800098470020E4E70020E2E7000070B500285B
:1015900011DB8508134EC035AD00AC590322104055
:1015A000C000FF231A008240944389010B4083400E
:1015B0002343AB5170BD0F220240083A9208063215
:1015C0009200094BD3185D6803242040C000FF221D
:1015D00014008440A54389010A4082402A435A608E
:1015E000E8E7C04600E100E000ED00E01F231840FE
:1015F0001E3B8340014A13607047C04600E100E093
:1016000001380A4B98420FD8094A50600948036ACA
:101610001B021B0AC02109060B43036200239360CF
:1016200007331360002070470120FCE7FFFFFF0035
:1016300010E000E000ED00E0042805D0054A136842
:1016400004218B4313607047024A136804210B4343
:101650001360F8E710E000E0704710B5FFF7FCFFFB
:1016600010BD0000114B1A6801210A431A605A6824
:101670000F4802405A601A680E4802401A601A6801
:101680000D4802401A605A680C4802405A60DA6AF3
:101690000F208243DA621A6B094802401A635A6BC0
:1016A0008A435A6300229A607047C0460010024085
:1016B0000CB8FF08FFFFF6FEFFFFFBFFFFFFC0FFB8
:1016C0002CFEFFFF1348854613480168090E134A94
:1016D000914205D112481349016013481349016032
:1016E00013481449144A002302E0D458C450043368
:1016F000C4188C42F9D3114A114C002301E0136045
:101700000432A242FBD3FFF7ADFF00F01DF8FEF755
:10171000D9FDFEE700180020040000001F000000B3
:10172000181002400100000000000140000000000D
:101730000000002004000020101800080400002011
:10174000E8000020FEE7000070B500260C4D0D4CAF
:10175000641BA410A64209D1002600F019F80A4D16
:101760000A4C641BA410A64205D170BDB300EB580F
:1017700098470136EEE7B300EB5898470136F2E799
:101780000818000808180008081800080C180008B5
:10179000F8B5C046F8BC08BC9E467047F8B5C046D0
:0817A000F8BC08BC9E4670472E
:1017A80002030405060708090A0B0C0D0E0F10109A
:1017B8000102030405060708090A0B0C0D0E0F1099
:1017C8005372632F6D61696E2E6300005372632F2D
:1017D8007274632E630000005372632F7370692E56
:1017E800630000005372632F74696D2E630000005C
:1017F80000000000000000000102030406070809B9
:04180800E9000008EB
:04180C00C10000080F
:0418100000127A0048
:04000005080016C514
:00000001FF
